{
  "_format": "hh-sol-artifact-1",
  "contractName": "FeeManagerUpgradeable",
  "sourceName": "contracts/FeeManagerUpgradeable.sol",
  "abi": [
    {
      "anonymous": false,
      "inputs": [
        {
          "indexed": false,
          "internalType": "uint8",
          "name": "destinationChainID",
          "type": "uint8"
        },
        {
          "indexed": false,
          "internalType": "address",
          "name": "feeTokenAddress",
          "type": "address"
        },
        {
          "indexed": false,
          "internalType": "uint256",
          "name": "transferFee",
          "type": "uint256"
        },
        {
          "indexed": false,
          "internalType": "uint256",
          "name": "exchangeFee",
          "type": "uint256"
        },
        {
          "indexed": false,
          "internalType": "bool",
          "name": "accepted",
          "type": "bool"
        }
      ],
      "name": "FeeUpdated",
      "type": "event"
    },
    {
      "anonymous": false,
      "inputs": [
        {
          "indexed": true,
          "internalType": "bytes32",
          "name": "role",
          "type": "bytes32"
        },
        {
          "indexed": true,
          "internalType": "bytes32",
          "name": "previousAdminRole",
          "type": "bytes32"
        },
        {
          "indexed": true,
          "internalType": "bytes32",
          "name": "newAdminRole",
          "type": "bytes32"
        }
      ],
      "name": "RoleAdminChanged",
      "type": "event"
    },
    {
      "anonymous": false,
      "inputs": [
        {
          "indexed": true,
          "internalType": "bytes32",
          "name": "role",
          "type": "bytes32"
        },
        {
          "indexed": true,
          "internalType": "address",
          "name": "account",
          "type": "address"
        },
        {
          "indexed": true,
          "internalType": "address",
          "name": "sender",
          "type": "address"
        }
      ],
      "name": "RoleGranted",
      "type": "event"
    },
    {
      "anonymous": false,
      "inputs": [
        {
          "indexed": true,
          "internalType": "bytes32",
          "name": "role",
          "type": "bytes32"
        },
        {
          "indexed": true,
          "internalType": "address",
          "name": "account",
          "type": "address"
        },
        {
          "indexed": true,
          "internalType": "address",
          "name": "sender",
          "type": "address"
        }
      ],
      "name": "RoleRevoked",
      "type": "event"
    },
    {
      "inputs": [],
      "name": "DEFAULT_ADMIN_ROLE",
      "outputs": [
        {
          "internalType": "bytes32",
          "name": "",
          "type": "bytes32"
        }
      ],
      "stateMutability": "view",
      "type": "function"
    },
    {
      "inputs": [],
      "name": "fetchHandler",
      "outputs": [
        {
          "internalType": "address",
          "name": "",
          "type": "address"
        }
      ],
      "stateMutability": "view",
      "type": "function"
    },
    {
      "inputs": [
        {
          "internalType": "uint8",
          "name": "destChainId",
          "type": "uint8"
        }
      ],
      "name": "getChainFeeTokens",
      "outputs": [
        {
          "internalType": "address[]",
          "name": "",
          "type": "address[]"
        }
      ],
      "stateMutability": "view",
      "type": "function"
    },
    {
      "inputs": [
        {
          "internalType": "uint8",
          "name": "destinationChainID",
          "type": "uint8"
        },
        {
          "internalType": "address",
          "name": "feeTokenAddress",
          "type": "address"
        }
      ],
      "name": "getFee",
      "outputs": [
        {
          "internalType": "uint256",
          "name": "",
          "type": "uint256"
        },
        {
          "internalType": "uint256",
          "name": "",
          "type": "uint256"
        }
      ],
      "stateMutability": "view",
      "type": "function"
    },
    {
      "inputs": [
        {
          "internalType": "uint8",
          "name": "destChainId",
          "type": "uint8"
        },
        {
          "internalType": "address",
          "name": "feeToken",
          "type": "address"
        }
      ],
      "name": "getFeeSafe",
      "outputs": [
        {
          "internalType": "uint256",
          "name": "",
          "type": "uint256"
        },
        {
          "internalType": "uint256",
          "name": "",
          "type": "uint256"
        },
        {
          "internalType": "bool",
          "name": "",
          "type": "bool"
        }
      ],
      "stateMutability": "view",
      "type": "function"
    },
    {
      "inputs": [
        {
          "internalType": "bytes32",
          "name": "role",
          "type": "bytes32"
        }
      ],
      "name": "getRoleAdmin",
      "outputs": [
        {
          "internalType": "bytes32",
          "name": "",
          "type": "bytes32"
        }
      ],
      "stateMutability": "view",
      "type": "function"
    },
    {
      "inputs": [
        {
          "internalType": "bytes32",
          "name": "role",
          "type": "bytes32"
        },
        {
          "internalType": "address",
          "name": "account",
          "type": "address"
        }
      ],
      "name": "grantRole",
      "outputs": [],
      "stateMutability": "nonpayable",
      "type": "function"
    },
    {
      "inputs": [
        {
          "internalType": "bytes32",
          "name": "role",
          "type": "bytes32"
        },
        {
          "internalType": "address",
          "name": "account",
          "type": "address"
        }
      ],
      "name": "hasRole",
      "outputs": [
        {
          "internalType": "bool",
          "name": "",
          "type": "bool"
        }
      ],
      "stateMutability": "view",
      "type": "function"
    },
    {
      "inputs": [
        {
          "internalType": "address",
          "name": "handlerAddress",
          "type": "address"
        }
      ],
      "name": "initialize",
      "outputs": [],
      "stateMutability": "nonpayable",
      "type": "function"
    },
    {
      "inputs": [
        {
          "internalType": "bytes32",
          "name": "role",
          "type": "bytes32"
        },
        {
          "internalType": "address",
          "name": "account",
          "type": "address"
        }
      ],
      "name": "renounceRole",
      "outputs": [],
      "stateMutability": "nonpayable",
      "type": "function"
    },
    {
      "inputs": [
        {
          "internalType": "bytes32",
          "name": "role",
          "type": "bytes32"
        },
        {
          "internalType": "address",
          "name": "account",
          "type": "address"
        }
      ],
      "name": "revokeRole",
      "outputs": [],
      "stateMutability": "nonpayable",
      "type": "function"
    },
    {
      "inputs": [
        {
          "internalType": "uint8",
          "name": "destinationChainID",
          "type": "uint8"
        },
        {
          "internalType": "address",
          "name": "feeTokenAddress",
          "type": "address"
        },
        {
          "internalType": "uint256",
          "name": "transferFee",
          "type": "uint256"
        },
        {
          "internalType": "uint256",
          "name": "exchangeFee",
          "type": "uint256"
        },
        {
          "internalType": "bool",
          "name": "accepted",
          "type": "bool"
        }
      ],
      "name": "setFee",
      "outputs": [],
      "stateMutability": "nonpayable",
      "type": "function"
    },
    {
      "inputs": [
        {
          "internalType": "address",
          "name": "_handler",
          "type": "address"
        }
      ],
      "name": "setHandler",
      "outputs": [],
      "stateMutability": "nonpayable",
      "type": "function"
    },
    {
      "inputs": [
        {
          "internalType": "bytes4",
          "name": "interfaceId",
          "type": "bytes4"
        }
      ],
      "name": "supportsInterface",
      "outputs": [
        {
          "internalType": "bool",
          "name": "",
          "type": "bool"
        }
      ],
      "stateMutability": "view",
      "type": "function"
    },
    {
      "inputs": [
        {
          "internalType": "address",
          "name": "tokenAddress",
          "type": "address"
        },
        {
          "internalType": "address",
          "name": "recipient",
          "type": "address"
        },
        {
          "internalType": "uint256",
          "name": "amount",
          "type": "uint256"
        }
      ],
      "name": "withdrawFee",
      "outputs": [],
      "stateMutability": "nonpayable",
      "type": "function"
    }
  ],
  "bytecode": "0x608060405234801561001057600080fd5b506110d6806100206000396000f3fe608060405234801561001057600080fd5b50600436106100d55760003560e01c80637d42bfa8116100875780637d42bfa8146101b157806391d14854146101c4578063a217fddf146101d7578063b0b5da73146101df578063bac426d0146101ff578063c4d66de814610212578063cc480e8e14610225578063d547741f1461028d576100d5565b806301ffc9a7146100da5780631095b6d714610102578063248a9ca3146101175780632f2ff15d1461014857806336568abe1461015b5780636edb7a3e1461016e5780637bacd10c14610189575b600080fd5b6100ed6100e8366004610dda565b6102a0565b60405190151581526020015b60405180910390f35b610115610110366004610d40565b6102d9565b005b61013a610125366004610d97565b60009081526065602052604090206001015490565b6040519081526020016100f9565b610115610156366004610daf565b610394565b610115610169366004610daf565b6103c0565b6097546040516001600160a01b0390911681526020016100f9565b61019c610197366004610e1c565b61043e565b604080519283526020830191909152016100f9565b6101156101bf366004610e45565b610501565b6100ed6101d2366004610daf565b6106b0565b61013a600081565b6101f26101ed366004610e02565b6106db565b6040516100f99190610f0e565b61011561020d366004610d26565b61074b565b610115610220366004610d26565b61077a565b610270610233366004610e1c565b60ff91821660009081526098602090815260408083206001600160a01b039490941683529290522080546001820154600290920154909391921690565b6040805193845260208401929092521515908201526060016100f9565b61011561029b366004610daf565b6107f8565b60006001600160e01b03198216637965db0b60e01b14806102d157506301ffc9a760e01b6001600160e01b03198316145b90505b919050565b6097546001600160a01b0316331461030c5760405162461bcd60e51b815260040161030390610f8e565b60405180910390fd5b60405163a9059cbb60e01b81526001600160a01b0383811660048301526024820183905284169063a9059cbb90604401602060405180830381600087803b15801561035657600080fd5b505af115801561036a573d6000803e3d6000fd5b505050506040513d601f19601f8201168201806040525081019061038e9190610d7b565b50505050565b6000828152606560205260409020600101546103b181335b61081e565b6103bb8383610882565b505050565b6001600160a01b03811633146104305760405162461bcd60e51b815260206004820152602f60248201527f416363657373436f6e74726f6c3a2063616e206f6e6c792072656e6f756e636560448201526e103937b632b9903337b91039b2b63360891b6064820152608401610303565b61043a8282610908565b5050565b60ff80831660009081526098602090815260408083206001600160a01b038616845290915281206002015490918291166104ca5760405162461bcd60e51b815260206004820152602760248201527f4665654d616e616765723a2066656573206e6f742073657420666f722074686960448201526639903a37b5b2b760c91b6064820152608401610303565b505060ff821660009081526098602090815260408083206001600160a01b0385168452909152902080546001909101549250929050565b6097546001600160a01b0316331461052b5760405162461bcd60e51b815260040161030390610f8e565b6001600160a01b0384166105815760405162461bcd60e51b815260206004820152601d60248201527f7365744665653a20616464726573732063616e2774206265206e756c6c0000006044820152606401610303565b60ff85811660008181526098602090815260408083206001600160a01b038a168085529083528184208981556001810189905560028101805460ff19168915151790559484526099835281842090845290915290205490911661063e5760ff861660008181526099602090815260408083206001600160a01b038a16808552908352818420805460ff19166001908117909155948452609a8352908320805494850181558352912090910180546001600160a01b03191690911790555b8054600182015460028301546040805160ff808c1682526001600160a01b038b16602083015291810194909452606084019290925216151560808201527fea9e9baa491aa6d3bb96de09425b81bc900a1af6482df4eeb8be7c416fe1e5df9060a00160405180910390a1505050505050565b60009182526065602090815260408084206001600160a01b0393909316845291905290205460ff1690565b60ff81166000908152609a602090815260409182902080548351818402810184019094528084526060939283018282801561073f57602002820191906000526020600020905b81546001600160a01b03168152600190910190602001808311610721575b50505050509050919050565b600061075781336103ac565b50609780546001600160a01b0319166001600160a01b0392909216919091179055565b600054610100900460ff1680610793575060005460ff16155b6107af5760405162461bcd60e51b815260040161030390610fdd565b600054610100900460ff161580156107da576000805460ff1961ff0019909116610100171660011790555b6107e38261096f565b801561043a576000805461ff00191690555050565b60008281526065602052604090206001015461081481336103ac565b6103bb8383610908565b61082882826106b0565b61043a57610840816001600160a01b03166014610a0b565b61084b836020610a0b565b60405160200161085c929190610e9f565b60408051601f198184030181529082905262461bcd60e51b825261030391600401610f5b565b61088c82826106b0565b61043a5760008281526065602090815260408083206001600160a01b03851684529091529020805460ff191660011790556108c43390565b6001600160a01b0316816001600160a01b0316837f2f8788117e7eff1d82e926ec794901d17c78024a50270940304540a733656f0d60405160405180910390a45050565b61091282826106b0565b1561043a5760008281526065602090815260408083206001600160a01b0385168085529252808320805460ff1916905551339285917ff6391f5c32d9c69d2a47ea670b442974b53935d1edc7fd64eb21e047a839171b9190a45050565b600054610100900460ff1680610988575060005460ff16155b6109a45760405162461bcd60e51b815260040161030390610fdd565b600054610100900460ff161580156109cf576000805460ff1961ff0019909116610100171660011790555b6109d7610bf4565b6109df610c81565b609780546001600160a01b0319166001600160a01b0384161790556107e36000610a063390565b610cf4565b60606000610a1a836002611043565b610a2590600261102b565b67ffffffffffffffff811115610a4b57634e487b7160e01b600052604160045260246000fd5b6040519080825280601f01601f191660200182016040528015610a75576020820181803683370190505b509050600360fc1b81600081518110610a9e57634e487b7160e01b600052603260045260246000fd5b60200101906001600160f81b031916908160001a905350600f60fb1b81600181518110610adb57634e487b7160e01b600052603260045260246000fd5b60200101906001600160f81b031916908160001a9053506000610aff846002611043565b610b0a90600161102b565b90505b6001811115610b9e576f181899199a1a9b1b9c1cb0b131b232b360811b85600f1660108110610b4c57634e487b7160e01b600052603260045260246000fd5b1a60f81b828281518110610b7057634e487b7160e01b600052603260045260246000fd5b60200101906001600160f81b031916908160001a90535060049490941c93610b978161108e565b9050610b0d565b508315610bed5760405162461bcd60e51b815260206004820181905260248201527f537472696e67733a20686578206c656e67746820696e73756666696369656e746044820152606401610303565b9392505050565b600054610100900460ff1680610c0d575060005460ff16155b610c295760405162461bcd60e51b815260040161030390610fdd565b600054610100900460ff16158015610c54576000805460ff1961ff0019909116610100171660011790555b610c5c610c81565b610c64610c81565b610c6c610c81565b8015610c7e576000805461ff00191690555b50565b600054610100900460ff1680610c9a575060005460ff16155b610cb65760405162461bcd60e51b815260040161030390610fdd565b600054610100900460ff16158015610c6c576000805460ff1961ff0019909116610100171660011790558015610c7e576000805461ff001916905550565b61043a8282610882565b80356001600160a01b03811681146102d457600080fd5b803560ff811681146102d457600080fd5b600060208284031215610d37578081fd5b610bed82610cfe565b600080600060608486031215610d54578182fd5b610d5d84610cfe565b9250610d6b60208501610cfe565b9150604084013590509250925092565b600060208284031215610d8c578081fd5b8151610bed816110bb565b600060208284031215610da8578081fd5b5035919050565b60008060408385031215610dc1578182fd5b82359150610dd160208401610cfe565b90509250929050565b600060208284031215610deb578081fd5b81356001600160e01b031981168114610bed578182fd5b600060208284031215610e13578081fd5b610bed82610d15565b60008060408385031215610e2e578182fd5b610e3783610d15565b9150610dd160208401610cfe565b600080600080600060a08688031215610e5c578081fd5b610e6586610d15565b9450610e7360208701610cfe565b935060408601359250606086013591506080860135610e91816110bb565b809150509295509295909350565b600076020b1b1b2b9b9a1b7b73a3937b61d1030b1b1b7bab73a1604d1b82528351610ed1816017850160208801611062565b7001034b99036b4b9b9b4b733903937b6329607d1b6017918401918201528351610f02816028840160208801611062565b01602801949350505050565b6020808252825182820181905260009190848201906040850190845b81811015610f4f5783516001600160a01b031683529284019291840191600101610f2a565b50909695505050505050565b6000602082528251806020840152610f7a816040850160208701611062565b601f01601f19169190910160400192915050565b6020808252602f908201527f466565204d616e61676572203a204f6e6c7920526f757465722048616e646c6560408201526e72732063616e20736574204665657360881b606082015260800190565b6020808252602e908201527f496e697469616c697a61626c653a20636f6e747261637420697320616c72656160408201526d191e481a5b9a5d1a585b1a5e995960921b606082015260800190565b6000821982111561103e5761103e6110a5565b500190565b600081600019048311821515161561105d5761105d6110a5565b500290565b60005b8381101561107d578181015183820152602001611065565b8381111561038e5750506000910152565b60008161109d5761109d6110a5565b506000190190565b634e487b7160e01b600052601160045260246000fd5b8015158114610c7e57600080fdfea164736f6c6343000802000a",
  "linkReferences": {},
  "deployedLinkReferences": {}
}