{
  "_format": "hh-sol-artifact-1",
  "contractName": "OneSplit",
  "sourceName": "contracts/OneSplit.sol",
  "abi": [
    {
      "anonymous": false,
      "inputs": [
        {
          "indexed": false,
          "internalType": "address",
          "name": "previousAdmin",
          "type": "address"
        },
        {
          "indexed": false,
          "internalType": "address",
          "name": "newAdmin",
          "type": "address"
        }
      ],
      "name": "AdminChanged",
      "type": "event"
    },
    {
      "anonymous": false,
      "inputs": [
        {
          "indexed": true,
          "internalType": "address",
          "name": "beacon",
          "type": "address"
        }
      ],
      "name": "BeaconUpgraded",
      "type": "event"
    },
    {
      "anonymous": false,
      "inputs": [
        {
          "indexed": true,
          "internalType": "bytes32",
          "name": "role",
          "type": "bytes32"
        },
        {
          "indexed": true,
          "internalType": "bytes32",
          "name": "previousAdminRole",
          "type": "bytes32"
        },
        {
          "indexed": true,
          "internalType": "bytes32",
          "name": "newAdminRole",
          "type": "bytes32"
        }
      ],
      "name": "RoleAdminChanged",
      "type": "event"
    },
    {
      "anonymous": false,
      "inputs": [
        {
          "indexed": true,
          "internalType": "bytes32",
          "name": "role",
          "type": "bytes32"
        },
        {
          "indexed": true,
          "internalType": "address",
          "name": "account",
          "type": "address"
        },
        {
          "indexed": true,
          "internalType": "address",
          "name": "sender",
          "type": "address"
        }
      ],
      "name": "RoleGranted",
      "type": "event"
    },
    {
      "anonymous": false,
      "inputs": [
        {
          "indexed": true,
          "internalType": "bytes32",
          "name": "role",
          "type": "bytes32"
        },
        {
          "indexed": true,
          "internalType": "address",
          "name": "account",
          "type": "address"
        },
        {
          "indexed": true,
          "internalType": "address",
          "name": "sender",
          "type": "address"
        }
      ],
      "name": "RoleRevoked",
      "type": "event"
    },
    {
      "anonymous": false,
      "inputs": [
        {
          "indexed": true,
          "internalType": "address",
          "name": "implementation",
          "type": "address"
        }
      ],
      "name": "Upgraded",
      "type": "event"
    },
    {
      "inputs": [],
      "name": "DEFAULT_ADMIN_ROLE",
      "outputs": [
        {
          "internalType": "bytes32",
          "name": "",
          "type": "bytes32"
        }
      ],
      "stateMutability": "view",
      "type": "function"
    },
    {
      "inputs": [],
      "name": "bridgeInstance",
      "outputs": [
        {
          "internalType": "contract IBridge",
          "name": "",
          "type": "address"
        }
      ],
      "stateMutability": "view",
      "type": "function"
    },
    {
      "inputs": [
        {
          "internalType": "contract IERC20Upgradeable",
          "name": "fromToken",
          "type": "address"
        },
        {
          "internalType": "contract IERC20Upgradeable",
          "name": "destToken",
          "type": "address"
        },
        {
          "internalType": "uint256",
          "name": "amount",
          "type": "uint256"
        },
        {
          "internalType": "uint256",
          "name": "parts",
          "type": "uint256"
        },
        {
          "internalType": "uint256",
          "name": "flags",
          "type": "uint256"
        }
      ],
      "name": "getExpectedReturn",
      "outputs": [
        {
          "internalType": "uint256",
          "name": "returnAmount",
          "type": "uint256"
        },
        {
          "internalType": "uint256[]",
          "name": "distribution",
          "type": "uint256[]"
        }
      ],
      "stateMutability": "view",
      "type": "function"
    },
    {
      "inputs": [
        {
          "internalType": "contract IERC20Upgradeable",
          "name": "srcStableFromToken",
          "type": "address"
        },
        {
          "internalType": "uint256",
          "name": "srcStableFromTokenAmount",
          "type": "uint256"
        },
        {
          "internalType": "uint256",
          "name": "parts",
          "type": "uint256"
        },
        {
          "internalType": "uint256",
          "name": "flags",
          "type": "uint256"
        }
      ],
      "name": "getExpectedReturnETH",
      "outputs": [
        {
          "internalType": "uint256",
          "name": "returnAmount",
          "type": "uint256"
        }
      ],
      "stateMutability": "view",
      "type": "function"
    },
    {
      "inputs": [
        {
          "internalType": "contract IERC20Upgradeable",
          "name": "fromToken",
          "type": "address"
        },
        {
          "internalType": "contract IERC20Upgradeable",
          "name": "destToken",
          "type": "address"
        },
        {
          "internalType": "uint256",
          "name": "amount",
          "type": "uint256"
        },
        {
          "internalType": "uint256",
          "name": "parts",
          "type": "uint256"
        },
        {
          "internalType": "uint256",
          "name": "flags",
          "type": "uint256"
        },
        {
          "internalType": "uint256",
          "name": "destTokenEthPriceTimesGasPrice",
          "type": "uint256"
        }
      ],
      "name": "getExpectedReturnWithGas",
      "outputs": [
        {
          "internalType": "uint256",
          "name": "returnAmount",
          "type": "uint256"
        },
        {
          "internalType": "uint256",
          "name": "estimateGasAmount",
          "type": "uint256"
        },
        {
          "internalType": "uint256[]",
          "name": "distribution",
          "type": "uint256[]"
        }
      ],
      "stateMutability": "view",
      "type": "function"
    },
    {
      "inputs": [
        {
          "internalType": "contract IERC20Upgradeable[]",
          "name": "tokens",
          "type": "address[]"
        },
        {
          "internalType": "uint256",
          "name": "amount",
          "type": "uint256"
        },
        {
          "internalType": "uint256[]",
          "name": "parts",
          "type": "uint256[]"
        },
        {
          "internalType": "uint256[]",
          "name": "flags",
          "type": "uint256[]"
        },
        {
          "internalType": "uint256[]",
          "name": "destTokenEthPriceTimesGasPrices",
          "type": "uint256[]"
        }
      ],
      "name": "getExpectedReturnWithGasMulti",
      "outputs": [
        {
          "internalType": "uint256[]",
          "name": "returnAmounts",
          "type": "uint256[]"
        },
        {
          "internalType": "uint256",
          "name": "estimateGasAmount",
          "type": "uint256"
        },
        {
          "internalType": "uint256[]",
          "name": "distribution",
          "type": "uint256[]"
        }
      ],
      "stateMutability": "view",
      "type": "function"
    },
    {
      "inputs": [
        {
          "internalType": "bytes32",
          "name": "role",
          "type": "bytes32"
        }
      ],
      "name": "getRoleAdmin",
      "outputs": [
        {
          "internalType": "bytes32",
          "name": "",
          "type": "bytes32"
        }
      ],
      "stateMutability": "view",
      "type": "function"
    },
    {
      "inputs": [
        {
          "internalType": "bytes32",
          "name": "role",
          "type": "bytes32"
        },
        {
          "internalType": "address",
          "name": "account",
          "type": "address"
        }
      ],
      "name": "grantRole",
      "outputs": [],
      "stateMutability": "nonpayable",
      "type": "function"
    },
    {
      "inputs": [],
      "name": "handlerAddress",
      "outputs": [
        {
          "internalType": "address",
          "name": "",
          "type": "address"
        }
      ],
      "stateMutability": "view",
      "type": "function"
    },
    {
      "inputs": [
        {
          "internalType": "bytes32",
          "name": "role",
          "type": "bytes32"
        },
        {
          "internalType": "address",
          "name": "account",
          "type": "address"
        }
      ],
      "name": "hasRole",
      "outputs": [
        {
          "internalType": "bool",
          "name": "",
          "type": "bool"
        }
      ],
      "stateMutability": "view",
      "type": "function"
    },
    {
      "inputs": [
        {
          "internalType": "contract IOneSplitView",
          "name": "_oneSplitView",
          "type": "address"
        },
        {
          "internalType": "address",
          "name": "_handlerAddress",
          "type": "address"
        },
        {
          "internalType": "address",
          "name": "_reserveAddress",
          "type": "address"
        },
        {
          "internalType": "address",
          "name": "_bridgeAddress",
          "type": "address"
        }
      ],
      "name": "initialize",
      "outputs": [],
      "stateMutability": "nonpayable",
      "type": "function"
    },
    {
      "inputs": [],
      "name": "oneSplitView",
      "outputs": [
        {
          "internalType": "contract IOneSplitView",
          "name": "",
          "type": "address"
        }
      ],
      "stateMutability": "view",
      "type": "function"
    },
    {
      "inputs": [
        {
          "internalType": "bytes32",
          "name": "role",
          "type": "bytes32"
        },
        {
          "internalType": "address",
          "name": "account",
          "type": "address"
        }
      ],
      "name": "renounceRole",
      "outputs": [],
      "stateMutability": "nonpayable",
      "type": "function"
    },
    {
      "inputs": [],
      "name": "reserveInstance",
      "outputs": [
        {
          "internalType": "contract IHandlerReserve",
          "name": "",
          "type": "address"
        }
      ],
      "stateMutability": "view",
      "type": "function"
    },
    {
      "inputs": [
        {
          "internalType": "bytes32",
          "name": "role",
          "type": "bytes32"
        },
        {
          "internalType": "address",
          "name": "account",
          "type": "address"
        }
      ],
      "name": "revokeRole",
      "outputs": [],
      "stateMutability": "nonpayable",
      "type": "function"
    },
    {
      "inputs": [
        {
          "internalType": "address",
          "name": "_bridgeAddress",
          "type": "address"
        }
      ],
      "name": "setBridgeAddress",
      "outputs": [
        {
          "internalType": "bool",
          "name": "",
          "type": "bool"
        }
      ],
      "stateMutability": "nonpayable",
      "type": "function"
    },
    {
      "inputs": [
        {
          "internalType": "contract IEthHandler",
          "name": "ethHandler",
          "type": "address"
        }
      ],
      "name": "setEthHandler",
      "outputs": [],
      "stateMutability": "nonpayable",
      "type": "function"
    },
    {
      "inputs": [
        {
          "internalType": "address",
          "name": "_handlerAddress",
          "type": "address"
        }
      ],
      "name": "setHandlerAddress",
      "outputs": [
        {
          "internalType": "bool",
          "name": "",
          "type": "bool"
        }
      ],
      "stateMutability": "nonpayable",
      "type": "function"
    },
    {
      "inputs": [
        {
          "internalType": "address",
          "name": "_reserveAddress",
          "type": "address"
        }
      ],
      "name": "setReserveAddress",
      "outputs": [
        {
          "internalType": "bool",
          "name": "",
          "type": "bool"
        }
      ],
      "stateMutability": "nonpayable",
      "type": "function"
    },
    {
      "inputs": [
        {
          "internalType": "bytes4",
          "name": "interfaceId",
          "type": "bytes4"
        }
      ],
      "name": "supportsInterface",
      "outputs": [
        {
          "internalType": "bool",
          "name": "",
          "type": "bool"
        }
      ],
      "stateMutability": "view",
      "type": "function"
    },
    {
      "inputs": [
        {
          "internalType": "contract IERC20Upgradeable",
          "name": "fromToken",
          "type": "address"
        },
        {
          "internalType": "contract IERC20Upgradeable",
          "name": "destToken",
          "type": "address"
        },
        {
          "internalType": "uint256",
          "name": "amount",
          "type": "uint256"
        },
        {
          "internalType": "uint256",
          "name": "minReturn",
          "type": "uint256"
        },
        {
          "internalType": "uint256",
          "name": "flags",
          "type": "uint256"
        },
        {
          "internalType": "bool",
          "name": "isWrapper",
          "type": "bool"
        }
      ],
      "name": "swap",
      "outputs": [
        {
          "internalType": "uint256",
          "name": "returnAmount",
          "type": "uint256"
        }
      ],
      "stateMutability": "payable",
      "type": "function"
    },
    {
      "inputs": [
        {
          "internalType": "contract IERC20Upgradeable[]",
          "name": "tokens",
          "type": "address[]"
        },
        {
          "internalType": "uint256",
          "name": "amount",
          "type": "uint256"
        },
        {
          "internalType": "uint256",
          "name": "minReturn",
          "type": "uint256"
        },
        {
          "internalType": "uint256[]",
          "name": "flags",
          "type": "uint256[]"
        },
        {
          "internalType": "bool",
          "name": "isWrapper",
          "type": "bool"
        }
      ],
      "name": "swapMulti",
      "outputs": [
        {
          "internalType": "uint256",
          "name": "returnAmount",
          "type": "uint256"
        }
      ],
      "stateMutability": "payable",
      "type": "function"
    },
    {
      "inputs": [
        {
          "internalType": "address",
          "name": "newImplementation",
          "type": "address"
        }
      ],
      "name": "upgradeTo",
      "outputs": [],
      "stateMutability": "nonpayable",
      "type": "function"
    },
    {
      "inputs": [
        {
          "internalType": "address",
          "name": "newImplementation",
          "type": "address"
        },
        {
          "internalType": "bytes",
          "name": "data",
          "type": "bytes"
        }
      ],
      "name": "upgradeToAndCall",
      "outputs": [],
      "stateMutability": "payable",
      "type": "function"
    },
    {
      "inputs": [
        {
          "internalType": "address",
          "name": "tokenAddress",
          "type": "address"
        },
        {
          "internalType": "address",
          "name": "recipient",
          "type": "address"
        },
        {
          "internalType": "uint256",
          "name": "amount",
          "type": "uint256"
        }
      ],
      "name": "withdraw",
      "outputs": [
        {
          "internalType": "bool",
          "name": "",
          "type": "bool"
        }
      ],
      "stateMutability": "payable",
      "type": "function"
    },
    {
      "stateMutability": "payable",
      "type": "receive"
    }
  ],
  "bytecode": "0x60a06040523060601b60805234801561001757600080fd5b5060805160601c614bab61004b60003960008181610738015281816107bd015281816108b401526109390152614bab6000f3fe60806040526004361061019a5760003560e01c80636f8d52d3116100e1578063a1368dd81161008a578063d547741f11610064578063d547741f1461048d578063d9caed12146104ad578063f8c8765e146104c0578063fbe4ed95146104e0576101a1565b8063a1368dd814610445578063a217fddf14610458578063a6c2b9001461046d576101a1565b80637f5a22f9116100bb5780637f5a22f9146103d65780638373f265146103f657806391d1485414610425576101a1565b80636f8d52d3146103675780636fd7d970146103875780637b33701a146103a7576101a1565b806336568abe116101435780634f1ef2861161011d5780634f1ef2861461032157806355d79139146103345780636bb6310f14610347576101a1565b806336568abe146102a95780633659cfe6146102c957806340550e74146102e9576101a1565b806317e4e5281161017457806317e4e52814610229578063248a9ca3146102575780632f2ff15d14610287576101a1565b806301ffc9a7146101a6578063085e2c5b146101db57806314673d3114610209576101a1565b366101a157005b600080fd5b3480156101b257600080fd5b506101c66101c13660046145b2565b610500565b60405190151581526020015b60405180910390f35b3480156101e757600080fd5b506101fb6101f63660046145da565b61056b565b6040516101d29291906149c7565b34801561021557600080fd5b506101c66102243660046142fa565b61058e565b34801561023557600080fd5b506102496102443660046146e8565b61061e565b6040519081526020016101d2565b34801561026357600080fd5b5061024961027236600461456b565b600090815260c9602052604090206001015490565b34801561029357600080fd5b506102a76102a2366004614583565b610676565b005b3480156102b557600080fd5b506102a76102c4366004614583565b6106a1565b3480156102d557600080fd5b506102a76102e43660046142fa565b61072d565b3480156102f557600080fd5b5060fe54610309906001600160a01b031681565b6040516001600160a01b0390911681526020016101d2565b6102a761032f366004614372565b6108a9565b6102496103423660046144c6565b610a12565b34801561035357600080fd5b5060fd54610309906001600160a01b031681565b34801561037357600080fd5b506102a76103823660046142fa565b610d04565b34801561039357600080fd5b5060fc54610309906001600160a01b031681565b3480156103b357600080fd5b506103c76103c2366004614414565b610d33565b6040516101d29392919061495f565b3480156103e257600080fd5b506101c66103f13660046142fa565b611158565b34801561040257600080fd5b50610416610411366004614690565b6111e2565b6040516101d2939291906149e8565b34801561043157600080fd5b506101c6610440366004614583565b6112ba565b61024961045336600461462a565b6112e7565b34801561046457600080fd5b50610249600081565b34801561047957600080fd5b506101c66104883660046142fa565b6113fa565b34801561049957600080fd5b506102a76104a8366004614583565b611484565b6101c66104bb366004614332565b6114aa565b3480156104cc57600080fd5b506102a76104db366004614722565b6115c9565b3480156104ec57600080fd5b5060fb54610309906001600160a01b031681565b60006001600160e01b031982167f7965db0b00000000000000000000000000000000000000000000000000000000148061056357507f01ffc9a7000000000000000000000000000000000000000000000000000000006001600160e01b03198316145b90505b919050565b6000606061057e878787878760006111e2565b9199919850909650505050505050565b60008061059c81335b6116fb565b6001600160a01b0383166105f75760405162461bcd60e51b815260206004820152601560248201527f416464726573732063616e2774206265206e756c6c000000000000000000000060448201526064015b60405180910390fd5b60fd80546001600160a01b0385166001600160a01b03199091161790556001915050919050565b60006001600160a01b038516611010141561064b57734c28f48448720e9000907bc2611f73022fdce1fa94505b61066c8573c778417e063141139fce010982780140aa0cd5ab86868661056b565b5095945050505050565b600082815260c960205260409020600101546106928133610597565b61069c838361175f565b505050565b6001600160a01b038116331461071f5760405162461bcd60e51b815260206004820152602f60248201527f416363657373436f6e74726f6c3a2063616e206f6e6c792072656e6f756e636560448201527f20726f6c657320666f722073656c66000000000000000000000000000000000060648201526084016105ee565b61072982826117e5565b5050565b306001600160a01b037f00000000000000000000000000000000000000000000000000000000000000001614156107bb5760405162461bcd60e51b815260206004820152602c60248201527f46756e6374696f6e206d7573742062652063616c6c6564207468726f7567682060448201526b19195b1959d85d1958d85b1b60a21b60648201526084016105ee565b7f00000000000000000000000000000000000000000000000000000000000000006001600160a01b03166108167f360894a13ba1a3210667c828492db98dca3e2076cc3735a920a3ca505d382bbc546001600160a01b031690565b6001600160a01b0316146108815760405162461bcd60e51b815260206004820152602c60248201527f46756e6374696f6e206d7573742062652063616c6c6564207468726f7567682060448201526b6163746976652070726f787960a01b60648201526084016105ee565b61088a8161184c565b604080516000808252602082019092526108a691839190611858565b50565b306001600160a01b037f00000000000000000000000000000000000000000000000000000000000000001614156109375760405162461bcd60e51b815260206004820152602c60248201527f46756e6374696f6e206d7573742062652063616c6c6564207468726f7567682060448201526b19195b1959d85d1958d85b1b60a21b60648201526084016105ee565b7f00000000000000000000000000000000000000000000000000000000000000006001600160a01b03166109927f360894a13ba1a3210667c828492db98dca3e2076cc3735a920a3ca505d382bbc546001600160a01b031690565b6001600160a01b0316146109fd5760405162461bcd60e51b815260206004820152602c60248201527f46756e6374696f6e206d7573742062652063616c6c6564207468726f7567682060448201526b6163746976652070726f787960a01b60648201526084016105ee565b610a068261184c565b61072982826001611858565b600081610a6157610a6133308789600081518110610a4057634e487b7160e01b600052603260045260246000fd5b60200260200101516001600160a01b0316611a00909392919063ffffffff16565b610aa53087600081518110610a8657634e487b7160e01b600052603260045260246000fd5b60200260200101516001600160a01b0316611b4190919063ffffffff16565b905060015b8651811015610c7957868181518110610ad357634e487b7160e01b600052603260045260246000fd5b60200260200101516001600160a01b031687600183610af29190614ab3565b81518110610b1057634e487b7160e01b600052603260045260246000fd5b60200260200101516001600160a01b03161415610b2c57610c67565b610bc387610b3b600184614ab3565b81518110610b5957634e487b7160e01b600052603260045260246000fd5b6020026020010151888381518110610b8157634e487b7160e01b600052603260045260246000fd5b60200260200101518487600186610b989190614ab3565b81518110610bb657634e487b7160e01b600052603260045260246000fd5b6020026020010151611be2565b610be730888381518110610a8657634e487b7160e01b600052603260045260246000fd5b9150610c6533610c1b308a610bfd600187614ab3565b81518110610a8657634e487b7160e01b600052603260045260246000fd5b89610c27600186614ab3565b81518110610c4557634e487b7160e01b600052603260045260246000fd5b60200260200101516001600160a01b0316611bf09092919063ffffffff16565b505b80610c7181614b0d565b915050610aaa565b5083811015610cf05760405162461bcd60e51b815260206004820152602f60248201527f52413a2061637475616c2072657475726e20616d6f756e74206973206c65737360448201527f207468616e206d696e52657475726e000000000000000000000000000000000060648201526084016105ee565b61066c33828860018a51610c279190614ab3565b6000610d108133610597565b5060ff80546001600160a01b0319166001600160a01b0392909216919091179055565b6060600060608060018951610d489190614ab3565b67ffffffffffffffff811115610d6e57634e487b7160e01b600052604160045260246000fd5b604051908082528060200260200182016040528015610d97578160200160208202803683370190505b50935060015b895181101561114b57898181518110610dc657634e487b7160e01b600052603260045260246000fd5b60200260200101516001600160a01b03168a600183610de59190614ab3565b81518110610e0357634e487b7160e01b600052603260045260246000fd5b60200260200101516001600160a01b03161415610e965780600114610e595784610e2e600283614ab3565b81518110610e4c57634e487b7160e01b600052603260045260246000fd5b6020026020010151610e5b565b885b85610e67600184614ab3565b81518110610e8557634e487b7160e01b600052603260045260246000fd5b602002602001018181525050611139565b89610fd481610ea6600185614ab3565b81518110610ec457634e487b7160e01b600052603260045260246000fd5b6020026020010151828481518110610eec57634e487b7160e01b600052603260045260246000fd5b602002602001015184600114610f335788610f08600287614ab3565b81518110610f2657634e487b7160e01b600052603260045260246000fd5b6020026020010151610f35565b8c5b8c610f41600188614ab3565b81518110610f5f57634e487b7160e01b600052603260045260246000fd5b60200260200101518c600188610f759190614ab3565b81518110610f9357634e487b7160e01b600052603260045260246000fd5b60200260200101518c600189610fa99190614ab3565b81518110610fc757634e487b7160e01b600052603260045260246000fd5b60200260200101516111e2565b88610fe0600187614ab3565b81518110610ffe57634e487b7160e01b600052603260045260246000fd5b60209081029190910101929092529a50925061101a8a86614a5c565b945083516000141561107b57825167ffffffffffffffff81111561104e57634e487b7160e01b600052604160045260246000fd5b604051908082528060200260200182016040528015611077578160200160208202803683370190505b5093505b60005b845181101561113657611092600184614ab3565b61109d906008614a94565b8482815181106110bd57634e487b7160e01b600052603260045260246000fd5b60200260200101518683815181106110e557634e487b7160e01b600052603260045260246000fd5b60200260200101516110f79190614a5c565b901b85828151811061111957634e487b7160e01b600052603260045260246000fd5b60209081029190910101528061112e81614b0d565b91505061107e565b50505b8061114381614b0d565b915050610d9d565b5050955095509592505050565b6000806111658133610597565b6001600160a01b0383166111bb5760405162461bcd60e51b815260206004820152601560248201527f416464726573732063616e2774206265206e756c6c000000000000000000000060448201526064016105ee565b60fe80546001600160a01b0385166001600160a01b03199091161790556001915050919050565b60fb546040517f8373f2650000000000000000000000000000000000000000000000000000000081526001600160a01b038881166004830152878116602483015260448201879052606482018690526084820185905260a48201849052600092839260609290911690638373f2659060c40160006040518083038186803b15801561126c57600080fd5b505afa158015611280573d6000803e3d6000fd5b505050506040513d6000823e601f3d908101601f191682016040526112a891908101906147e3565b92509250925096509650969350505050565b600082815260c9602090815260408083206001600160a01b038516845290915290205460ff165b92915050565b600081611303576113036001600160a01b038816333088611a00565b60006113186001600160a01b03891630611b41565b905061132688888387611be2565b6113396001600160a01b03881630611b41565b9150848210156113b15760405162461bcd60e51b815260206004820152602f60248201527f52413a2061637475616c2072657475726e20616d6f756e74206973206c65737360448201527f207468616e206d696e52657475726e000000000000000000000000000000000060648201526084016105ee565b6113c56001600160a01b0388163384611bf0565b506113ee336113dd6001600160a01b038b1630611b41565b6001600160a01b038b169190611bf0565b50509695505050505050565b6000806114078133610597565b6001600160a01b03831661145d5760405162461bcd60e51b815260206004820152601760248201527f526563697069656e742063616e2774206265206e756c6c00000000000000000060448201526064016105ee565b60fc80546001600160a01b0385166001600160a01b03199091161790556001915050919050565b600082815260c960205260409020600101546114a08133610597565b61069c83836117e5565b60fc546000906001600160a01b031633146115075760405162461bcd60e51b815260206004820152601f60248201527f73656e646572206d7573742062652068616e646c657220636f6e74726163740060448201526064016105ee565b6001600160a01b03841661155d5760405162461bcd60e51b815260206004820152601b60248201527f546f6b656e20616464726573732063616e2774206265206e756c6c000000000060448201526064016105ee565b6001600160a01b0383166115b35760405162461bcd60e51b815260206004820152601760248201527f526563697069656e742063616e2774206265206e756c6c00000000000000000060448201526064016105ee565b6115be848484611c5c565b5060015b9392505050565b600054610100900460ff166115e45760005460ff16156115e8565b303b155b61165a5760405162461bcd60e51b815260206004820152602e60248201527f496e697469616c697a61626c653a20636f6e747261637420697320616c72656160448201527f647920696e697469616c697a656400000000000000000000000000000000000060648201526084016105ee565b600054610100900460ff16158015611685576000805460ff1961ff0019909116610100171660011790555b61168d611daf565b611698600033611e34565b60fb80546001600160a01b038088166001600160a01b03199283161790925560fc805487841690831617905560fd805486841690831617905560fe80549285169290911691909117905580156116f4576000805461ff00191690555b5050505050565b61170582826112ba565b6107295761171d816001600160a01b03166014611e3e565b611728836020611e3e565b6040516020016117399291906148de565b60408051601f198184030181529082905262461bcd60e51b82526105ee91600401614994565b61176982826112ba565b61072957600082815260c9602090815260408083206001600160a01b03851684529091529020805460ff191660011790556117a13390565b6001600160a01b0316816001600160a01b0316837f2f8788117e7eff1d82e926ec794901d17c78024a50270940304540a733656f0d60405160405180910390a45050565b6117ef82826112ba565b1561072957600082815260c9602090815260408083206001600160a01b0385168085529252808320805460ff1916905551339285917ff6391f5c32d9c69d2a47ea670b442974b53935d1edc7fd64eb21e047a839171b9190a45050565b60006107298133610597565b600061188b7f360894a13ba1a3210667c828492db98dca3e2076cc3735a920a3ca505d382bbc546001600160a01b031690565b905061189684612065565b6000835111806118a35750815b156118b4576118b2848461211a565b505b7f4910fdfa16fed3260ed0e7147f7cc6da11a60208b5b9406d12a635614ffd9143805460ff166116f457805460ff191660011781556040516001600160a01b038316602482015261194c90869060440160408051601f198184030181529190526020810180516001600160e01b03167f3659cfe60000000000000000000000000000000000000000000000000000000017905261211a565b50805460ff191681557f360894a13ba1a3210667c828492db98dca3e2076cc3735a920a3ca505d382bbc546001600160a01b038381169116146119f75760405162461bcd60e51b815260206004820152602f60248201527f45524331393637557067726164653a207570677261646520627265616b73206660448201527f757274686572207570677261646573000000000000000000000000000000000060648201526084016105ee565b6116f48561221c565b80611a0a57611b3b565b611a138461225c565b15611b2f576001600160a01b03831633148015611a305750803410155b611aa25760405162461bcd60e51b815260206004820152602a60248201527f57726f6e67207573616765206f66204554482e756e6976657273616c5472616e60448201527f7366657246726f6d28290000000000000000000000000000000000000000000060648201526084016105ee565b6001600160a01b0382163014611aea576040516001600160a01b0383169082156108fc029083906000818181858888f19350505050158015611ae8573d6000803e3d6000fd5b505b80341115611b2a57336108fc611b00348461227d565b6040518115909202916000818181858888f19350505050158015611b28573d6000803e3d6000fd5b505b611b3b565b611b3b84848484612289565b50505050565b6000611b4c8361225c565b15611b6257506001600160a01b038116316112e1565b6040516370a0823160e01b81526001600160a01b0383811660048301528416906370a082319060240160206040518083038186803b158015611ba357600080fd5b505afa158015611bb7573d6000803e3d6000fd5b505050506040513d601f19601f82011682018060405250810190611bdb91906147cb565b90506112e1565b6116f48484846000856123ec565b600081611bff575060016115c2565b611c088461225c565b15611c49576040516001600160a01b0384169083156108fc029084906000818181858888f19350505050158015611c43573d6000803e3d6000fd5b506115c2565b611c54848484611c5c565b5060016115c2565b604080516001600160a01b038481166024830152604480830185905283518084039091018152606490920183526020820180516001600160e01b03167fa9059cbb000000000000000000000000000000000000000000000000000000001790529151600092839290871691611cd191906148c2565b6000604051808303816000865af19150503d8060008114611d0e576040519150601f19603f3d011682016040523d82523d6000602084013e611d13565b606091505b5091509150818015611d3d575080511580611d3d575080806020019051810190611d3d919061454f565b6116f45760405162461bcd60e51b815260206004820152602d60248201527f5472616e7366657248656c7065723a3a736166655472616e736665723a20747260448201527f616e73666572206661696c65640000000000000000000000000000000000000060648201526084016105ee565b600054610100900460ff16611e1a5760405162461bcd60e51b815260206004820152602b60248201527f496e697469616c697a61626c653a20636f6e7472616374206973206e6f74206960448201526a6e697469616c697a696e6760a81b60648201526084016105ee565b611e22612732565b611e2a612732565b611e32612732565b565b610729828261175f565b60606000611e4d836002614a94565b611e58906002614a5c565b67ffffffffffffffff811115611e7e57634e487b7160e01b600052604160045260246000fd5b6040519080825280601f01601f191660200182016040528015611ea8576020820181803683370190505b5090507f300000000000000000000000000000000000000000000000000000000000000081600081518110611eed57634e487b7160e01b600052603260045260246000fd5b60200101906001600160f81b031916908160001a9053507f780000000000000000000000000000000000000000000000000000000000000081600181518110611f4657634e487b7160e01b600052603260045260246000fd5b60200101906001600160f81b031916908160001a9053506000611f6a846002614a94565b611f75906001614a5c565b90505b6001811115612016577f303132333435363738396162636465660000000000000000000000000000000085600f1660108110611fc457634e487b7160e01b600052603260045260246000fd5b1a60f81b828281518110611fe857634e487b7160e01b600052603260045260246000fd5b60200101906001600160f81b031916908160001a90535060049490941c9361200f81614af6565b9050611f78565b5083156115c25760405162461bcd60e51b815260206004820181905260248201527f537472696e67733a20686578206c656e67746820696e73756666696369656e7460448201526064016105ee565b803b6120d95760405162461bcd60e51b815260206004820152602d60248201527f455243313936373a206e657720696d706c656d656e746174696f6e206973206e60448201527f6f74206120636f6e74726163740000000000000000000000000000000000000060648201526084016105ee565b7f360894a13ba1a3210667c828492db98dca3e2076cc3735a920a3ca505d382bbc80546001600160a01b0319166001600160a01b0392909216919091179055565b6060823b6121905760405162461bcd60e51b815260206004820152602660248201527f416464726573733a2064656c65676174652063616c6c20746f206e6f6e2d636f60448201527f6e7472616374000000000000000000000000000000000000000000000000000060648201526084016105ee565b600080846001600160a01b0316846040516121ab91906148c2565b600060405180830381855af49150503d80600081146121e6576040519150601f19603f3d011682016040523d82523d6000602084013e6121eb565b606091505b50915091506122138282604051806060016040528060278152602001614b786027913961279d565b95945050505050565b61222581612065565b6040516001600160a01b038216907fbc7cd75a20ee27fd9adebab32041f755214dbc6bffa90cc0225b39da2e5c2d3b90600090a250565b60006001600160a01b03821615806105635750506001600160a01b03161590565b60006115c28284614ab3565b604080516001600160a01b0385811660248301528481166044830152606480830185905283518084039091018152608490920183526020820180516001600160e01b03167f23b872dd00000000000000000000000000000000000000000000000000000000179052915160009283929088169161230691906148c2565b6000604051808303816000865af19150503d8060008114612343576040519150601f19603f3d011682016040523d82523d6000602084013e612348565b606091505b5091509150818015612372575080511580612372575080806020019051810190612372919061454f565b6123e45760405162461bcd60e51b815260206004820152603160248201527f5472616e7366657248656c7065723a3a7472616e7366657246726f6d3a20747260448201527f616e7366657246726f6d206661696c656400000000000000000000000000000060648201526084016105ee565b505050505050565b6000846001600160a01b0316866001600160a01b0316141561240f575082612213565b60fd546040517f5fae92450000000000000000000000000000000000000000000000000000000081526001600160a01b038781166004830152888116921690635fae924590602401602060405180830381600087803b15801561247157600080fd5b505af1158015612485573d6000803e3d6000fd5b505050506040513d601f19601f820116820180604052508101906124a99190614316565b6001600160a01b03161480156124d7575060fd5484906124d5906001600160a01b038881169116611b41565b115b1561256e5760fe5460fc546040517f60829f8a0000000000000000000000000000000000000000000000000000000081526001600160a01b0391821660048201528782166024820152604481018790529116906360829f8a906064015b600060405180830381600087803b15801561254e57600080fd5b505af1158015612562573d6000803e3d6000fd5b50505050839050612213565b60fd546040517faa50ec120000000000000000000000000000000000000000000000000000000081526001600160a01b03878116600483015288811692169063aa50ec1290602401602060405180830381600087803b1580156125d057600080fd5b505af11580156125e4573d6000803e3d6000fd5b505050506040513d601f19601f820116820180604052508101906126089190614316565b6001600160a01b0316141561268d5760fd54612631906001600160a01b038881169116866127d6565b60fe5460fc546040517fbf6eac2f0000000000000000000000000000000000000000000000000000000081526001600160a01b03918216600482015288821660248201526044810187905291169063bf6eac2f90606401612534565b6141f7612699836128bc565b905060006126b06001600160a01b03891630611b41565b90506126c2888883878663ffffffff16565b6126d56001600160a01b03881630611b41565b9250848310156127275760405162461bcd60e51b815260206004820152601c60248201527f52657475726e20616d6f756e7420776173206e6f7420656e6f7567680000000060448201526064016105ee565b505095945050505050565b600054610100900460ff16611e325760405162461bcd60e51b815260206004820152602b60248201527f496e697469616c697a61626c653a20636f6e7472616374206973206e6f74206960448201526a6e697469616c697a696e6760a81b60648201526084016105ee565b606083156127ac5750816115c2565b8251156127bc5782518084602001fd5b8160405162461bcd60e51b81526004016105ee9190614994565b6127df8361225c565b61069c57806127f9576127f483836000612971565b61069c565b6040517fdd62ed3e0000000000000000000000000000000000000000000000000000000081523060048201526001600160a01b0383811660248301526000919085169063dd62ed3e9060440160206040518083038186803b15801561285d57600080fd5b505afa158015612871573d6000803e3d6000fd5b505050506040513d601f19601f8201168201806040525081019061289591906147cb565b905081811015611b3b5780156128b1576128b184846000612971565b611b3b848484612971565b6141f7651000000000018216156128d65750612ac4610566565b654000020000008216156128ed5750612d8c610566565b6108008216156129005750612d98610566565b60808216156129125750612da4610566565b650400000000008216156129295750612db0610566565b60405162461bcd60e51b815260206004820152601660248201527f52413a2045786368616e6765206e6f7420666f756e640000000000000000000060448201526064016105ee565b604080516001600160a01b038481166024830152604480830185905283518084039091018152606490920183526020820180516001600160e01b03167f095ea7b30000000000000000000000000000000000000000000000000000000017905291516000928392908716916129e691906148c2565b6000604051808303816000865af19150503d8060008114612a23576040519150601f19603f3d011682016040523d82523d6000602084013e612a28565b606091505b5091509150818015612a52575080511580612a52575080806020019051810190612a52919061454f565b6116f45760405162461bcd60e51b815260206004820152602b60248201527f5472616e7366657248656c7065723a3a73616665417070726f76653a2061707060448201527f726f7665206661696c656400000000000000000000000000000000000000000060648201526084016105ee565b81612ad76001600160a01b03861661225c565b612c33576040516303795fb160e11b81526001600160a01b038616600482015260009073c0a47dfe034b400b47bdad5fecda2621de6c4d95906306f2bf629060240160206040518083038186803b158015612b3157600080fd5b505afa158015612b45573d6000803e3d6000fd5b505050506040513d601f19601f82011682018060405250810190612b699190614316565b90506001600160a01b03811615612c3157612b8e6001600160a01b03871682846127d6565b6040517f95e3c50b00000000000000000000000000000000000000000000000000000000815260048101839052600160248201524260448201526001600160a01b038216906395e3c50b90606401602060405180830381600087803b158015612bf657600080fd5b505af1158015612c0a573d6000803e3d6000fd5b505050506040513d601f19601f82011682018060405250810190612c2e91906147cb565b91505b505b612c45846001600160a01b031661225c565b6116f4576040516303795fb160e11b81526001600160a01b038516600482015260009073c0a47dfe034b400b47bdad5fecda2621de6c4d95906306f2bf629060240160206040518083038186803b158015612c9f57600080fd5b505afa158015612cb3573d6000803e3d6000fd5b505050506040513d601f19601f82011682018060405250810190612cd79190614316565b90506001600160a01b038116156123e4576040517ff39b5b9b000000000000000000000000000000000000000000000000000000008152600160048201524260248201526001600160a01b0382169063f39b5b9b9084906044016020604051808303818588803b158015612d4a57600080fd5b505af1158015612d5e573d6000803e3d6000fd5b50505050506040513d601f19601f82011682018060405250810190612d8391906147cb565b50505050505050565b6116f484848484612dbc565b6116f484848484613390565b6116f484848484613928565b6116f484848484613ebf565b6000612dd0856001600160a01b031661225c565b15612e3e5773c778417e063141139fce010982780140aa0cd5ab6001600160a01b031663d0e30db0846040518263ffffffff1660e01b81526004016000604051808303818588803b158015612e2457600080fd5b505af1158015612e38573d6000803e3d6000fd5b50505050505b6000612e52866001600160a01b031661225c565b612e5c5785612e72565b73c778417e063141139fce010982780140aa0cd5ab5b90506000612e88866001600160a01b031661225c565b612e925785612ea8565b73c778417e063141139fce010982780140aa0cd5ab5b60405163e6a4390560e01b81526001600160a01b03808516600483015282166024820152909150600090735c69bee701ef814a2b6a3edd4b1652cb9cc5aa6f9063e6a439059060440160206040518083038186803b158015612f0957600080fd5b505afa158015612f1d573d6000803e3d6000fd5b505050506040513d601f19601f82011682018060405250810190612f419190614316565b9050600080612f5b6001600160a01b03841686868b613ff9565b919750925090508115612fc057826001600160a01b031663fff6cae96040518163ffffffff1660e01b8152600401600060405180830381600087803b158015612fa357600080fd5b505af1158015612fb7573d6000803e3d6000fd5b50505050613034565b80156130345760405163bc25cf7760e01b81527301291560cea94286aa6f230ae8c074b08f70b7a660048201526001600160a01b0384169063bc25cf7790602401600060405180830381600087803b15801561301b57600080fd5b505af115801561302f573d6000803e3d6000fd5b505050505b6130486001600160a01b038616848a611bf0565b50836001600160a01b0316856001600160a01b031610156130dd5760405163022c0d9f60e01b8152600060048201819052602482018890523060448301526080606483015260848201526001600160a01b0384169063022c0d9f9060a401600060405180830381600087803b1580156130c057600080fd5b505af11580156130d4573d6000803e3d6000fd5b50505050613153565b60405163022c0d9f60e01b8152600481018790526000602482018190523060448301526080606483015260848201526001600160a01b0384169063022c0d9f9060a401600060405180830381600087803b15801561313a57600080fd5b505af115801561314e573d6000803e3d6000fd5b505050505b613165896001600160a01b031661225c565b15613383576040516370a0823160e01b815230600482015260009073c778417e063141139fce010982780140aa0cd5ab906370a082319060240160206040518083038186803b1580156131b757600080fd5b505afa1580156131cb573d6000803e3d6000fd5b505050506040513d601f19601f820116820180604052508101906131ef91906147cb565b60ff546040516370a0823160e01b815230600482015291925073c778417e063141139fce010982780140aa0cd5ab9163a9059cbb916001600160a01b03169083906370a082319060240160206040518083038186803b15801561325157600080fd5b505afa158015613265573d6000803e3d6000fd5b505050506040513d601f19601f8201168201806040525081019061328991906147cb565b6040516001600160e01b031960e085901b1681526001600160a01b0390921660048301526024820152604401602060405180830381600087803b1580156132cf57600080fd5b505af11580156132e3573d6000803e3d6000fd5b505050506040513d601f19601f82011682018060405250810190613307919061454f565b5060ff5460405163f3fef3a360e01b815273c778417e063141139fce010982780140aa0cd5ab6004820152602481018390526001600160a01b039091169063f3fef3a3906044015b600060405180830381600087803b15801561336957600080fd5b505af115801561337d573d6000803e3d6000fd5b50505050505b5050505050949350505050565b60006133a4856001600160a01b031661225c565b1561341257734c28f48448720e9000907bc2611f73022fdce1fa6001600160a01b031663d0e30db0846040518263ffffffff1660e01b81526004016000604051808303818588803b1580156133f857600080fd5b505af115801561340c573d6000803e3d6000fd5b50505050505b6000613426866001600160a01b031661225c565b6134305785613446565b734c28f48448720e9000907bc2611f73022fdce1fa5b9050600061345c866001600160a01b031661225c565b613466578561347c565b734c28f48448720e9000907bc2611f73022fdce1fa5b60405163e6a4390560e01b81526001600160a01b0380851660048301528216602482015290915060009073e7fb3e833efe5f9c441105eb65ef8b261266423b9063e6a43905906044015b60206040518083038186803b1580156134de57600080fd5b505afa1580156134f2573d6000803e3d6000fd5b505050506040513d601f19601f820116820180604052508101906135169190614316565b90506000806135306001600160a01b03841686868b613ff9565b91975092509050811561359557826001600160a01b031663fff6cae96040518163ffffffff1660e01b8152600401600060405180830381600087803b15801561357857600080fd5b505af115801561358c573d6000803e3d6000fd5b50505050613609565b80156136095760405163bc25cf7760e01b81527301291560cea94286aa6f230ae8c074b08f70b7a660048201526001600160a01b0384169063bc25cf7790602401600060405180830381600087803b1580156135f057600080fd5b505af1158015613604573d6000803e3d6000fd5b505050505b61361d6001600160a01b038616848a611bf0565b50836001600160a01b0316856001600160a01b031610156136b25760405163022c0d9f60e01b8152600060048201819052602482018890523060448301526080606483015260848201526001600160a01b0384169063022c0d9f9060a401600060405180830381600087803b15801561369557600080fd5b505af11580156136a9573d6000803e3d6000fd5b50505050613728565b60405163022c0d9f60e01b8152600481018790526000602482018190523060448301526080606483015260848201526001600160a01b0384169063022c0d9f9060a401600060405180830381600087803b15801561370f57600080fd5b505af1158015613723573d6000803e3d6000fd5b505050505b61373a896001600160a01b031661225c565b15613383576040516370a0823160e01b8152306004820152600090734c28f48448720e9000907bc2611f73022fdce1fa906370a082319060240160206040518083038186803b15801561378c57600080fd5b505afa1580156137a0573d6000803e3d6000fd5b505050506040513d601f19601f820116820180604052508101906137c491906147cb565b60ff546040516370a0823160e01b8152306004820152919250734c28f48448720e9000907bc2611f73022fdce1fa9163a9059cbb916001600160a01b03169083906370a082319060240160206040518083038186803b15801561382657600080fd5b505afa15801561383a573d6000803e3d6000fd5b505050506040513d601f19601f8201168201806040525081019061385e91906147cb565b6040516001600160e01b031960e085901b1681526001600160a01b0390921660048301526024820152604401602060405180830381600087803b1580156138a457600080fd5b505af11580156138b8573d6000803e3d6000fd5b505050506040513d601f19601f820116820180604052508101906138dc919061454f565b5060ff5460405163f3fef3a360e01b8152734c28f48448720e9000907bc2611f73022fdce1fa6004820152602481018390526001600160a01b039091169063f3fef3a39060440161334f565b600061393c856001600160a01b031661225c565b156139aa5773bb4cdb9cbd36b01bd1cbaebf2de08d9173bc095c6001600160a01b031663d0e30db0846040518263ffffffff1660e01b81526004016000604051808303818588803b15801561399057600080fd5b505af11580156139a4573d6000803e3d6000fd5b50505050505b60006139be866001600160a01b031661225c565b6139c857856139de565b73bb4cdb9cbd36b01bd1cbaebf2de08d9173bc095c5b905060006139f4866001600160a01b031661225c565b6139fe5785613a14565b73bb4cdb9cbd36b01bd1cbaebf2de08d9173bc095c5b60405163e6a4390560e01b81526001600160a01b0380851660048301528216602482015290915060009073ca143ce32fe78f1f7019d7d551a6402fc5350c739063e6a439059060440160206040518083038186803b158015613a7557600080fd5b505afa158015613a89573d6000803e3d6000fd5b505050506040513d601f19601f82011682018060405250810190613aad9190614316565b9050600080613ac76001600160a01b03841686868b613ff9565b919750925090508115613b2c57826001600160a01b031663fff6cae96040518163ffffffff1660e01b8152600401600060405180830381600087803b158015613b0f57600080fd5b505af1158015613b23573d6000803e3d6000fd5b50505050613ba0565b8015613ba05760405163bc25cf7760e01b81527301291560cea94286aa6f230ae8c074b08f70b7a660048201526001600160a01b0384169063bc25cf7790602401600060405180830381600087803b158015613b8757600080fd5b505af1158015613b9b573d6000803e3d6000fd5b505050505b613bb46001600160a01b038616848a611bf0565b50836001600160a01b0316856001600160a01b03161015613c495760405163022c0d9f60e01b8152600060048201819052602482018890523060448301526080606483015260848201526001600160a01b0384169063022c0d9f9060a401600060405180830381600087803b158015613c2c57600080fd5b505af1158015613c40573d6000803e3d6000fd5b50505050613cbf565b60405163022c0d9f60e01b8152600481018790526000602482018190523060448301526080606483015260848201526001600160a01b0384169063022c0d9f9060a401600060405180830381600087803b158015613ca657600080fd5b505af1158015613cba573d6000803e3d6000fd5b505050505b613cd1896001600160a01b031661225c565b15613383576040516370a0823160e01b815230600482015260009073bb4cdb9cbd36b01bd1cbaebf2de08d9173bc095c906370a082319060240160206040518083038186803b158015613d2357600080fd5b505afa158015613d37573d6000803e3d6000fd5b505050506040513d601f19601f82011682018060405250810190613d5b91906147cb565b60ff546040516370a0823160e01b815230600482015291925073bb4cdb9cbd36b01bd1cbaebf2de08d9173bc095c9163a9059cbb916001600160a01b03169083906370a082319060240160206040518083038186803b158015613dbd57600080fd5b505afa158015613dd1573d6000803e3d6000fd5b505050506040513d601f19601f82011682018060405250810190613df591906147cb565b6040516001600160e01b031960e085901b1681526001600160a01b0390921660048301526024820152604401602060405180830381600087803b158015613e3b57600080fd5b505af1158015613e4f573d6000803e3d6000fd5b505050506040513d601f19601f82011682018060405250810190613e73919061454f565b5060ff5460405163f3fef3a360e01b815273bb4cdb9cbd36b01bd1cbaebf2de08d9173bc095c6004820152602481018390526001600160a01b039091169063f3fef3a39060440161334f565b6000613ed3856001600160a01b031661225c565b15613f4157734c28f48448720e9000907bc2611f73022fdce1fa6001600160a01b031663d0e30db0846040518263ffffffff1660e01b81526004016000604051808303818588803b158015613f2757600080fd5b505af1158015613f3b573d6000803e3d6000fd5b50505050505b6000613f55866001600160a01b031661225c565b613f5f5785613f75565b734c28f48448720e9000907bc2611f73022fdce1fa5b90506000613f8b866001600160a01b031661225c565b613f955785613fab565b734c28f48448720e9000907bc2611f73022fdce1fa5b60405163e6a4390560e01b81526001600160a01b03808516600483015282166024820152909150600090735757371414417b8c6caad45baef941abc7d3ab329063e6a43905906044016134c6565b60008080806140116001600160a01b03881689611b41565b905060006140286001600160a01b0388168a611b41565b90506000808a6001600160a01b0316630902f1ac6040518163ffffffff1660e01b815260040160606040518083038186803b15801561406657600080fd5b505afa15801561407a573d6000803e3d6000fd5b505050506040513d601f19601f8201168201806040525081019061409e919061477d565b5091509150886001600160a01b03168a6001600160a01b031611156140bf57905b816dffffffffffffffffffffffffffff168410806140ec5750806dffffffffffffffffffffffffffff1683105b9550851580156141245750816dffffffffffffffffffffffffffff168411806141245750806dffffffffffffffffffffffffffff1683115b94506000614134896103e56141bd565b9050600061415c61415586856dffffffffffffffffffffffffffff166141c9565b83906141bd565b905060006141908361418a6103e86141848b8a6dffffffffffffffffffffffffffff166141c9565b906141bd565b906141df565b905080156141a7576141a282826141eb565b6141aa565b60005b9950505050505050509450945094915050565b60006115c28284614a94565b60008183106141d857816115c2565b5090919050565b60006115c28284614a5c565b60006115c28284614a74565b634e487b7160e01b600052605160045260246000fd5b600082601f83011261421d578081fd5b8135602061423261422d83614a38565b614a07565b828152818101908583018385028701840188101561424e578586fd5b855b8581101561427557813561426381614b54565b84529284019290840190600101614250565b5090979650505050505050565b600082601f830112614292578081fd5b813560206142a261422d83614a38565b82815281810190858301838502870184018810156142be578586fd5b855b85811015614275578135845292840192908401906001016142c0565b80516dffffffffffffffffffffffffffff8116811461056657600080fd5b60006020828403121561430b578081fd5b81356115c281614b54565b600060208284031215614327578081fd5b81516115c281614b54565b600080600060608486031215614346578182fd5b833561435181614b54565b9250602084013561436181614b54565b929592945050506040919091013590565b60008060408385031215614384578182fd5b823561438f81614b54565b915060208381013567ffffffffffffffff808211156143ac578384fd5b818601915086601f8301126143bf578384fd5b8135818111156143d1576143d1614b3e565b6143e3601f8201601f19168501614a07565b915080825287848285010111156143f8578485fd5b8084840185840137810190920192909252919491935090915050565b600080600080600060a0868803121561442b578283fd5b853567ffffffffffffffff80821115614442578485fd5b61444e89838a0161420d565b965060208801359550604088013591508082111561446a578485fd5b61447689838a01614282565b9450606088013591508082111561448b578283fd5b61449789838a01614282565b935060808801359150808211156144ac578283fd5b506144b988828901614282565b9150509295509295909350565b600080600080600060a086880312156144dd578283fd5b853567ffffffffffffffff808211156144f4578485fd5b61450089838a0161420d565b965060208801359550604088013594506060880135915080821115614523578283fd5b5061453088828901614282565b925050608086013561454181614b69565b809150509295509295909350565b600060208284031215614560578081fd5b81516115c281614b69565b60006020828403121561457c578081fd5b5035919050565b60008060408385031215614595578182fd5b8235915060208301356145a781614b54565b809150509250929050565b6000602082840312156145c3578081fd5b81356001600160e01b0319811681146115c2578182fd5b600080600080600060a086880312156145f1578283fd5b85356145fc81614b54565b9450602086013561460c81614b54565b94979496505050506040830135926060810135926080909101359150565b60008060008060008060c08789031215614642578384fd5b863561464d81614b54565b9550602087013561465d81614b54565b945060408701359350606087013592506080870135915060a087013561468281614b69565b809150509295509295509295565b60008060008060008060c087890312156146a8578384fd5b86356146b381614b54565b955060208701356146c381614b54565b95989597505050506040840135936060810135936080820135935060a0909101359150565b600080600080608085870312156146fd578182fd5b843561470881614b54565b966020860135965060408601359560600135945092505050565b60008060008060808587031215614737578182fd5b843561474281614b54565b9350602085013561475281614b54565b9250604085013561476281614b54565b9150606085013561477281614b54565b939692955090935050565b600080600060608486031215614791578081fd5b61479a846142dc565b92506147a8602085016142dc565b9150604084015163ffffffff811681146147c0578182fd5b809150509250925092565b6000602082840312156147dc578081fd5b5051919050565b6000806000606084860312156147f7578081fd5b835192506020808501519250604085015167ffffffffffffffff81111561481c578283fd5b8501601f8101871361482c578283fd5b805161483a61422d82614a38565b81815283810190838501858402850186018b1015614856578687fd5b8694505b8385101561487857805183526001949094019391850191850161485a565b5080955050505050509250925092565b6000815180845260208085019450808401835b838110156148b75781518752958201959082019060010161489b565b509495945050505050565b600082516148d4818460208701614aca565b9190910192915050565b60007f416363657373436f6e74726f6c3a206163636f756e742000000000000000000082528351614916816017850160208801614aca565b7f206973206d697373696e6720726f6c65200000000000000000000000000000006017918401918201528351614953816028840160208801614aca565b01602801949350505050565b6000606082526149726060830186614888565b846020840152828103604084015261498a8185614888565b9695505050505050565b60006020825282518060208401526149b3816040850160208701614aca565b601f01601f19169190910160400192915050565b6000838252604060208301526149e06040830184614888565b949350505050565b6000848252836020830152606060408301526122136060830184614888565b604051601f8201601f1916810167ffffffffffffffff81118282101715614a3057614a30614b3e565b604052919050565b600067ffffffffffffffff821115614a5257614a52614b3e565b5060209081020190565b60008219821115614a6f57614a6f614b28565b500190565b600082614a8f57634e487b7160e01b81526012600452602481fd5b500490565b6000816000190483118215151615614aae57614aae614b28565b500290565b600082821015614ac557614ac5614b28565b500390565b60005b83811015614ae5578181015183820152602001614acd565b83811115611b3b5750506000910152565b600081614b0557614b05614b28565b506000190190565b6000600019821415614b2157614b21614b28565b5060010190565b634e487b7160e01b600052601160045260246000fd5b634e487b7160e01b600052604160045260246000fd5b6001600160a01b03811681146108a657600080fd5b80151581146108a657600080fdfe416464726573733a206c6f772d6c6576656c2064656c65676174652063616c6c206661696c6564a164736f6c6343000802000a",
  "linkReferences": {},
  "deployedLinkReferences": {}
}