{
  "_format": "hh-sol-artifact-1",
  "contractName": "HandlerHelpersUpgradeable",
  "sourceName": "contracts/handlers/HandlerHelpersUpgradeable.sol",
  "abi": [
    {
      "anonymous": false,
      "inputs": [
        {
          "indexed": true,
          "internalType": "bytes32",
          "name": "role",
          "type": "bytes32"
        },
        {
          "indexed": true,
          "internalType": "bytes32",
          "name": "previousAdminRole",
          "type": "bytes32"
        },
        {
          "indexed": true,
          "internalType": "bytes32",
          "name": "newAdminRole",
          "type": "bytes32"
        }
      ],
      "name": "RoleAdminChanged",
      "type": "event"
    },
    {
      "anonymous": false,
      "inputs": [
        {
          "indexed": true,
          "internalType": "bytes32",
          "name": "role",
          "type": "bytes32"
        },
        {
          "indexed": true,
          "internalType": "address",
          "name": "account",
          "type": "address"
        },
        {
          "indexed": true,
          "internalType": "address",
          "name": "sender",
          "type": "address"
        }
      ],
      "name": "RoleGranted",
      "type": "event"
    },
    {
      "anonymous": false,
      "inputs": [
        {
          "indexed": true,
          "internalType": "bytes32",
          "name": "role",
          "type": "bytes32"
        },
        {
          "indexed": true,
          "internalType": "address",
          "name": "account",
          "type": "address"
        },
        {
          "indexed": true,
          "internalType": "address",
          "name": "sender",
          "type": "address"
        }
      ],
      "name": "RoleRevoked",
      "type": "event"
    },
    {
      "inputs": [],
      "name": "BRIDGE_ROLE",
      "outputs": [
        {
          "internalType": "bytes32",
          "name": "",
          "type": "bytes32"
        }
      ],
      "stateMutability": "view",
      "type": "function"
    },
    {
      "inputs": [],
      "name": "DEFAULT_ADMIN_ROLE",
      "outputs": [
        {
          "internalType": "bytes32",
          "name": "",
          "type": "bytes32"
        }
      ],
      "stateMutability": "view",
      "type": "function"
    },
    {
      "inputs": [],
      "name": "FEE_SETTER_ROLE",
      "outputs": [
        {
          "internalType": "bytes32",
          "name": "",
          "type": "bytes32"
        }
      ],
      "stateMutability": "view",
      "type": "function"
    },
    {
      "inputs": [],
      "name": "_ETH",
      "outputs": [
        {
          "internalType": "address",
          "name": "",
          "type": "address"
        }
      ],
      "stateMutability": "view",
      "type": "function"
    },
    {
      "inputs": [],
      "name": "_WETH",
      "outputs": [
        {
          "internalType": "address",
          "name": "",
          "type": "address"
        }
      ],
      "stateMutability": "view",
      "type": "function"
    },
    {
      "inputs": [],
      "name": "_bridgeAddress",
      "outputs": [
        {
          "internalType": "address",
          "name": "",
          "type": "address"
        }
      ],
      "stateMutability": "view",
      "type": "function"
    },
    {
      "inputs": [
        {
          "internalType": "address",
          "name": "",
          "type": "address"
        }
      ],
      "name": "_burnList",
      "outputs": [
        {
          "internalType": "bool",
          "name": "",
          "type": "bool"
        }
      ],
      "stateMutability": "view",
      "type": "function"
    },
    {
      "inputs": [
        {
          "internalType": "address",
          "name": "",
          "type": "address"
        }
      ],
      "name": "_contractWhitelist",
      "outputs": [
        {
          "internalType": "bool",
          "name": "",
          "type": "bool"
        }
      ],
      "stateMutability": "view",
      "type": "function"
    },
    {
      "inputs": [],
      "name": "_isFeeEnabled",
      "outputs": [
        {
          "internalType": "bool",
          "name": "",
          "type": "bool"
        }
      ],
      "stateMutability": "view",
      "type": "function"
    },
    {
      "inputs": [],
      "name": "_oneSplitAddress",
      "outputs": [
        {
          "internalType": "address",
          "name": "",
          "type": "address"
        }
      ],
      "stateMutability": "view",
      "type": "function"
    },
    {
      "inputs": [],
      "name": "_reserve",
      "outputs": [
        {
          "internalType": "contract IHandlerReserve",
          "name": "",
          "type": "address"
        }
      ],
      "stateMutability": "view",
      "type": "function"
    },
    {
      "inputs": [
        {
          "internalType": "address",
          "name": "",
          "type": "address"
        }
      ],
      "name": "_tokenContractAddressToResourceID",
      "outputs": [
        {
          "internalType": "bytes32",
          "name": "",
          "type": "bytes32"
        }
      ],
      "stateMutability": "view",
      "type": "function"
    },
    {
      "inputs": [],
      "name": "feeManager",
      "outputs": [
        {
          "internalType": "contract IFeeManagerUpgradeable",
          "name": "",
          "type": "address"
        }
      ],
      "stateMutability": "view",
      "type": "function"
    },
    {
      "inputs": [
        {
          "internalType": "uint8",
          "name": "destinationChainID",
          "type": "uint8"
        },
        {
          "internalType": "address",
          "name": "feeTokenAddress",
          "type": "address"
        }
      ],
      "name": "getBridgeFee",
      "outputs": [
        {
          "internalType": "uint256",
          "name": "",
          "type": "uint256"
        },
        {
          "internalType": "uint256",
          "name": "",
          "type": "uint256"
        }
      ],
      "stateMutability": "view",
      "type": "function"
    },
    {
      "inputs": [],
      "name": "getFeeStatus",
      "outputs": [
        {
          "internalType": "bool",
          "name": "",
          "type": "bool"
        }
      ],
      "stateMutability": "view",
      "type": "function"
    },
    {
      "inputs": [
        {
          "internalType": "bytes32",
          "name": "role",
          "type": "bytes32"
        }
      ],
      "name": "getRoleAdmin",
      "outputs": [
        {
          "internalType": "bytes32",
          "name": "",
          "type": "bytes32"
        }
      ],
      "stateMutability": "view",
      "type": "function"
    },
    {
      "inputs": [],
      "name": "getTotalFeeSetters",
      "outputs": [
        {
          "internalType": "uint256",
          "name": "",
          "type": "uint256"
        }
      ],
      "stateMutability": "view",
      "type": "function"
    },
    {
      "inputs": [
        {
          "internalType": "address",
          "name": "account",
          "type": "address"
        }
      ],
      "name": "grantFeeRole",
      "outputs": [],
      "stateMutability": "nonpayable",
      "type": "function"
    },
    {
      "inputs": [
        {
          "internalType": "bytes32",
          "name": "role",
          "type": "bytes32"
        },
        {
          "internalType": "address",
          "name": "account",
          "type": "address"
        }
      ],
      "name": "grantRole",
      "outputs": [],
      "stateMutability": "nonpayable",
      "type": "function"
    },
    {
      "inputs": [
        {
          "internalType": "bytes32",
          "name": "role",
          "type": "bytes32"
        },
        {
          "internalType": "address",
          "name": "account",
          "type": "address"
        }
      ],
      "name": "hasRole",
      "outputs": [
        {
          "internalType": "bool",
          "name": "",
          "type": "bool"
        }
      ],
      "stateMutability": "view",
      "type": "function"
    },
    {
      "inputs": [
        {
          "internalType": "bytes32",
          "name": "role",
          "type": "bytes32"
        },
        {
          "internalType": "address",
          "name": "account",
          "type": "address"
        }
      ],
      "name": "renounceRole",
      "outputs": [],
      "stateMutability": "nonpayable",
      "type": "function"
    },
    {
      "inputs": [
        {
          "internalType": "bytes32",
          "name": "resourceID",
          "type": "bytes32"
        }
      ],
      "name": "resourceIDToTokenContractAddress",
      "outputs": [
        {
          "internalType": "address",
          "name": "",
          "type": "address"
        }
      ],
      "stateMutability": "view",
      "type": "function"
    },
    {
      "inputs": [
        {
          "internalType": "address",
          "name": "account",
          "type": "address"
        }
      ],
      "name": "revokeFeeRole",
      "outputs": [],
      "stateMutability": "nonpayable",
      "type": "function"
    },
    {
      "inputs": [
        {
          "internalType": "bytes32",
          "name": "role",
          "type": "bytes32"
        },
        {
          "internalType": "address",
          "name": "account",
          "type": "address"
        }
      ],
      "name": "revokeRole",
      "outputs": [],
      "stateMutability": "nonpayable",
      "type": "function"
    },
    {
      "inputs": [
        {
          "internalType": "uint8",
          "name": "destinationChainID",
          "type": "uint8"
        },
        {
          "internalType": "address",
          "name": "feeTokenAddress",
          "type": "address"
        },
        {
          "internalType": "uint256",
          "name": "transferFee",
          "type": "uint256"
        },
        {
          "internalType": "uint256",
          "name": "exchangeFee",
          "type": "uint256"
        },
        {
          "internalType": "bool",
          "name": "accepted",
          "type": "bool"
        }
      ],
      "name": "setBridgeFee",
      "outputs": [],
      "stateMutability": "nonpayable",
      "type": "function"
    },
    {
      "inputs": [
        {
          "internalType": "uint8",
          "name": "destinationChainID",
          "type": "uint8"
        },
        {
          "internalType": "address[]",
          "name": "feeTokenAddrs",
          "type": "address[]"
        },
        {
          "internalType": "uint256[]",
          "name": "transferFees",
          "type": "uint256[]"
        },
        {
          "internalType": "uint256[]",
          "name": "exchangeFees",
          "type": "uint256[]"
        },
        {
          "internalType": "bool[]",
          "name": "accepted",
          "type": "bool[]"
        }
      ],
      "name": "setBridgeFees",
      "outputs": [],
      "stateMutability": "nonpayable",
      "type": "function"
    },
    {
      "inputs": [
        {
          "internalType": "address",
          "name": "contractAddress",
          "type": "address"
        }
      ],
      "name": "setBurnable",
      "outputs": [],
      "stateMutability": "nonpayable",
      "type": "function"
    },
    {
      "inputs": [
        {
          "internalType": "contract IFeeManagerUpgradeable",
          "name": "_feeManager",
          "type": "address"
        }
      ],
      "name": "setFeeManager",
      "outputs": [],
      "stateMutability": "nonpayable",
      "type": "function"
    },
    {
      "inputs": [
        {
          "internalType": "string",
          "name": "name",
          "type": "string"
        },
        {
          "internalType": "string",
          "name": "symbol",
          "type": "string"
        },
        {
          "internalType": "uint8",
          "name": "decimals",
          "type": "uint8"
        },
        {
          "internalType": "address",
          "name": "contractAddress",
          "type": "address"
        },
        {
          "internalType": "address",
          "name": "lpAddress",
          "type": "address"
        }
      ],
      "name": "setLiquidityPool",
      "outputs": [],
      "stateMutability": "nonpayable",
      "type": "function"
    },
    {
      "inputs": [
        {
          "internalType": "address",
          "name": "newOwner",
          "type": "address"
        },
        {
          "internalType": "address",
          "name": "tokenAddress",
          "type": "address"
        },
        {
          "internalType": "address",
          "name": "lpAddress",
          "type": "address"
        }
      ],
      "name": "setLiquidityPoolOwner",
      "outputs": [],
      "stateMutability": "nonpayable",
      "type": "function"
    },
    {
      "inputs": [
        {
          "internalType": "address",
          "name": "contractAddress",
          "type": "address"
        }
      ],
      "name": "setOneSplitAddress",
      "outputs": [],
      "stateMutability": "nonpayable",
      "type": "function"
    },
    {
      "inputs": [
        {
          "internalType": "bytes32",
          "name": "resourceID",
          "type": "bytes32"
        },
        {
          "internalType": "address",
          "name": "contractAddress",
          "type": "address"
        }
      ],
      "name": "setResource",
      "outputs": [],
      "stateMutability": "nonpayable",
      "type": "function"
    },
    {
      "inputs": [
        {
          "internalType": "bytes4",
          "name": "interfaceId",
          "type": "bytes4"
        }
      ],
      "name": "supportsInterface",
      "outputs": [
        {
          "internalType": "bool",
          "name": "",
          "type": "bool"
        }
      ],
      "stateMutability": "view",
      "type": "function"
    },
    {
      "inputs": [
        {
          "internalType": "bool",
          "name": "status",
          "type": "bool"
        }
      ],
      "name": "toggleFeeStatus",
      "outputs": [],
      "stateMutability": "nonpayable",
      "type": "function"
    },
    {
      "inputs": [],
      "name": "totalFeeSetters",
      "outputs": [
        {
          "internalType": "uint256",
          "name": "",
          "type": "uint256"
        }
      ],
      "stateMutability": "view",
      "type": "function"
    },
    {
      "inputs": [
        {
          "internalType": "address",
          "name": "tokenAddress",
          "type": "address"
        },
        {
          "internalType": "address",
          "name": "recipient",
          "type": "address"
        },
        {
          "internalType": "uint256",
          "name": "amountOrTokenID",
          "type": "uint256"
        }
      ],
      "name": "withdraw",
      "outputs": [],
      "stateMutability": "nonpayable",
      "type": "function"
    }
  ],
  "bytecode": "0x608060405234801561001057600080fd5b50611673806100206000396000f3fe608060405234801561001057600080fd5b506004361061021c5760003560e01c80637ffb45fa11610125578063d0681f2b116100ad578063d755c3491161007c578063d755c349146104f6578063d9caed1214610509578063e0af36161461051c578063e7c308fd1461052f578063e9347683146105425761021c565b8063d0681f2b146104a9578063d0fb0203146104bc578063d3ff209d146104cf578063d547741f146104e35761021c565b8063a217fddf116100f4578063a217fddf14610446578063b5bfddea1461044e578063b8fa373614610463578063c2d1574014610476578063c8ba6c87146104895761021c565b80637ffb45fa146103e557806391d14854146103f85780639680504c1461040b5780639e601b311461041e5761021c565b80633b0603ed116101a8578063640eb87011610177578063640eb870146103715780636a70d081146103795780636be1dc2b1461039c57806375db5641146103af5780637f79bea8146103c25761021c565b80633b0603ed1461032f578063413ab4a814610338578063472d35b91461034b5780635db99af21461035e5761021c565b8063248a9ca3116101ef578063248a9ca31461029c5780632f2ff15d146102cd578063318c136e146102e057806335d0d5dc146102f357806336568abe1461031c5761021c565b806301ffc9a71461022157806307b7ed99146102495780630ab75d3e1461025e5780631487001b14610289575b600080fd5b61023461022f366004611120565b610557565b60405190151581526020015b60405180910390f35b61025c610257366004611019565b610590565b005b609854610271906001600160a01b031681565b6040516001600160a01b039091168152602001610240565b61025c61029736600461122f565b6105b7565b6102bf6102aa3660046110d9565b60009081526065602052604090206001015490565b604051908152602001610240565b61025c6102db3660046110f1565b610657565b609754610271906001600160a01b031681565b6102716103013660046110d9565b6000908152609e60205260409020546001600160a01b031690565b61025c61032a3660046110f1565b61067d565b6102bf609b5481565b609d54610271906001600160a01b031681565b61025c610359366004611019565b6106fc565b609954610271906001600160a01b031681565b609b546102bf565b610234610387366004611019565b60a16020526000908152604090205460ff1681565b61025c6103aa3660046110bf565b61072b565b61025c6103bd366004611287565b610763565b6102346103d0366004611019565b60a06020526000908152604090205460ff1681565b61025c6103f3366004611035565b6107fa565b6102346104063660046110f1565b610888565b61025c610419366004611148565b6108b3565b61043161042c366004611204565b610904565b60408051928352602083019190915201610240565b6102bf600081565b6102bf60008051602061164783398151915281565b61025c6104713660046110f1565b610999565b61025c610484366004611019565b610a02565b6102bf610497366004611019565b609f6020526000908152604090205481565b61025c6104b7366004611019565b610a49565b609c54610271906001600160a01b031681565b609a5461023490600160a01b900460ff1681565b61025c6104f13660046110f1565b610a88565b610234609a54600160a01b900460ff1690565b61025c61051736600461107f565b505050565b609a54610271906001600160a01b031681565b61025c61053d366004611019565b610aae565b6102bf60008051602061162783398151915281565b60006001600160e01b03198216637965db0b60e01b148061058857506301ffc9a760e01b6001600160e01b03198316145b90505b919050565b6000805160206116478339815191526105aa81335b610ad0565b6105b382610b34565b5050565b6000805160206116478339815191526105d081336105a5565b609c54604051630fa857f560e31b815260ff881660048201526001600160a01b0387811660248301526044820187905260648201869052841515608483015290911690637d42bfa89060a4015b600060405180830381600087803b15801561063757600080fd5b505af115801561064b573d6000803e3d6000fd5b50505050505050505050565b60008281526065602052604090206001015461067381336105a5565b6105178383610bcc565b6001600160a01b03811633146106f25760405162461bcd60e51b815260206004820152602f60248201527f416363657373436f6e74726f6c3a2063616e206f6e6c792072656e6f756e636560448201526e103937b632b9903337b91039b2b63360891b60648201526084015b60405180910390fd5b6105b38282610c52565b600061070881336105a5565b50609c80546001600160a01b0319166001600160a01b0392909216919091179055565b60008051602061164783398151915261074481336105a5565b50609a8054911515600160a01b0260ff60a01b19909216919091179055565b60008051602061164783398151915261077c81336105a5565b609c54604051632081797360e11b81526001600160a01b0390911690634102f2e6906107bc908d908d908d908d908d908d908d908d908d9060040161148b565b600060405180830381600087803b1580156107d657600080fd5b505af11580156107ea573d6000803e3d6000fd5b5050505050505050505050505050565b60008051602061164783398151915261081381336105a5565b609d546040516316e9aed760e11b81526001600160a01b0386811660048301528581166024830152848116604483015290911690632dd35dae90606401600060405180830381600087803b15801561086a57600080fd5b505af115801561087e573d6000803e3d6000fd5b5050505050505050565b60009182526065602090815260408084206001600160a01b0393909316845291905290205460ff1690565b6000805160206116478339815191526108cc81336105a5565b609d54604051631e4a68cf60e11b81526001600160a01b0390911690633c94d19e9061061d908990899089908990899060040161143b565b609c54604051631eeb344360e21b815260ff841660048201526001600160a01b0383811660248301526000928392911690637bacd10c90604401604080518083038186803b15801561095557600080fd5b505afa158015610969573d6000803e3d6000fd5b505050506040513d601f19601f8201168201806040525081019061098d91906111e1565b915091505b9250929050565b6000805160206116478339815191526109b281336105a5565b6000838152609e6020908152604080832080546001600160a01b0319166001600160a01b0387169081179091558352609f825280832086905560a09091529020805460ff19166001179055610517565b600080516020611647833981519152610a1b81336105a5565b610a3360008051602061162783398151915283610a88565b6001609b54610a429190611584565b609b555050565b600080516020611647833981519152610a6281336105a5565b610a7a60008051602061162783398151915283610657565b609b54610a4290600161154d565b600082815260656020526040902060010154610aa481336105a5565b6105178383610c52565b600080516020611647833981519152610ac781336105a5565b6105b382610cb9565b610ada8282610888565b6105b357610af2816001600160a01b03166014610d46565b610afd836020610d46565b604051602001610b0e9291906113b9565b60408051601f198184030181529082905262461bcd60e51b82526106e991600401611428565b6001600160a01b038116600090815260a0602052604090205460ff16610ba85760405162461bcd60e51b8152602060048201526024808201527f70726f766964656420636f6e7472616374206973206e6f742077686974656c696044820152631cdd195960e21b60648201526084016106e9565b6001600160a01b0316600090815260a160205260409020805460ff19166001179055565b610bd68282610888565b6105b35760008281526065602090815260408083206001600160a01b03851684529091529020805460ff19166001179055610c0e3390565b6001600160a01b0316816001600160a01b0316837f2f8788117e7eff1d82e926ec794901d17c78024a50270940304540a733656f0d60405160405180910390a45050565b610c5c8282610888565b156105b35760008281526065602090815260408083206001600160a01b0385168085529252808320805460ff1916905551339285917ff6391f5c32d9c69d2a47ea670b442974b53935d1edc7fd64eb21e047a839171b9190a45050565b6001600160a01b038116610d245760405162461bcd60e51b815260206004820152602c60248201527f455243323048616e646c65723a20636f6e74726163744164647265737320636160448201526b1b9b9bdd081899481b9d5b1b60a21b60648201526084016106e9565b609880546001600160a01b0319166001600160a01b0392909216919091179055565b60606000610d55836002611565565b610d6090600261154d565b67ffffffffffffffff811115610d8657634e487b7160e01b600052604160045260246000fd5b6040519080825280601f01601f191660200182016040528015610db0576020820181803683370190505b509050600360fc1b81600081518110610dd957634e487b7160e01b600052603260045260246000fd5b60200101906001600160f81b031916908160001a905350600f60fb1b81600181518110610e1657634e487b7160e01b600052603260045260246000fd5b60200101906001600160f81b031916908160001a9053506000610e3a846002611565565b610e4590600161154d565b90505b6001811115610ed9576f181899199a1a9b1b9c1cb0b131b232b360811b85600f1660108110610e8757634e487b7160e01b600052603260045260246000fd5b1a60f81b828281518110610eab57634e487b7160e01b600052603260045260246000fd5b60200101906001600160f81b031916908160001a90535060049490941c93610ed2816115cb565b9050610e48565b508315610f285760405162461bcd60e51b815260206004820181905260248201527f537472696e67733a20686578206c656e67746820696e73756666696369656e7460448201526064016106e9565b9392505050565b60008083601f840112610f40578081fd5b50813567ffffffffffffffff811115610f57578182fd5b602083019150836020808302850101111561099257600080fd5b8035801515811461058b57600080fd5b600082601f830112610f91578081fd5b813567ffffffffffffffff80821115610fac57610fac6115f8565b604051601f8301601f19908116603f01168101908282118183101715610fd457610fd46115f8565b81604052838152866020858801011115610fec578485fd5b8360208701602083013792830160200193909352509392505050565b803560ff8116811461058b57600080fd5b60006020828403121561102a578081fd5b8135610f288161160e565b600080600060608486031215611049578182fd5b83356110548161160e565b925060208401356110648161160e565b915060408401356110748161160e565b809150509250925092565b600080600060608486031215611093578283fd5b833561109e8161160e565b925060208401356110ae8161160e565b929592945050506040919091013590565b6000602082840312156110d0578081fd5b610f2882610f71565b6000602082840312156110ea578081fd5b5035919050565b60008060408385031215611103578182fd5b8235915060208301356111158161160e565b809150509250929050565b600060208284031215611131578081fd5b81356001600160e01b031981168114610f28578182fd5b600080600080600060a0868803121561115f578081fd5b853567ffffffffffffffff80821115611176578283fd5b61118289838a01610f81565b96506020880135915080821115611197578283fd5b506111a488828901610f81565b9450506111b360408701611008565b925060608601356111c38161160e565b915060808601356111d38161160e565b809150509295509295909350565b600080604083850312156111f3578182fd5b505080516020909101519092909150565b60008060408385031215611216578182fd5b61121f83611008565b915060208301356111158161160e565b600080600080600060a08688031215611246578283fd5b61124f86611008565b9450602086013561125f8161160e565b9350604086013592506060860135915061127b60808701610f71565b90509295509295909350565b600080600080600080600080600060a08a8c0312156112a4578687fd5b6112ad8a611008565b985060208a013567ffffffffffffffff808211156112c9578889fd5b6112d58d838e01610f2f565b909a50985060408c01359150808211156112ed578586fd5b6112f98d838e01610f2f565b909850965060608c0135915080821115611311578586fd5b61131d8d838e01610f2f565b909650945060808c0135915080821115611335578384fd5b506113428c828d01610f2f565b915080935050809150509295985092959850929598565b81835260006001600160fb1b03831115611371578081fd5b6020830280836020870137939093016020019283525090919050565b600081518084526113a581602086016020860161159b565b601f01601f19169290920160200192915050565b600076020b1b1b2b9b9a1b7b73a3937b61d1030b1b1b7bab73a1604d1b825283516113eb81601785016020880161159b565b7001034b99036b4b9b9b4b733903937b6329607d1b601791840191820152835161141c81602884016020880161159b565b01602801949350505050565b600060208252610f28602083018461138d565b600060a0825261144e60a083018861138d565b8281036020840152611460818861138d565b60ff96909616604084015250506001600160a01b039283166060820152911660809091015292915050565b60ff8a16815260a060208083018290529082018990526000908a9060c08401835b8c8110156114da5783356114bf8161160e565b6001600160a01b0316825292820192908201906001016114ac565b5084810360408601526114ee818b8d611359565b925050838203606085015261150482888a611359565b84810360808601528581528692508101835b8681101561153b5761152784610f71565b151582529282019290820190600101611516565b509d9c50505050505050505050505050565b60008219821115611560576115606115e2565b500190565b600081600019048311821515161561157f5761157f6115e2565b500290565b600082821015611596576115966115e2565b500390565b60005b838110156115b657818101518382015260200161159e565b838111156115c5576000848401525b50505050565b6000816115da576115da6115e2565b506000190190565b634e487b7160e01b600052601160045260246000fd5b634e487b7160e01b600052604160045260246000fd5b6001600160a01b038116811461162357600080fd5b5056fee6ad9a47fbda1dc18de1eb5eeb7d935e5e81b4748f3cfc61e233e64f8818206052ba824bfabc2bcfcdf7f0edbb486ebb05e1836c90e78047efeb949990f72e5fa164736f6c6343000802000a",
  "linkReferences": {},
  "deployedLinkReferences": {}
}